{
  "contractName": "PropertyRental",
  "abi": [
    {
      "anonymous": false,
      "inputs": [
        {
          "indexed": false,
          "internalType": "uint256",
          "name": "propertyId",
          "type": "uint256"
        },
        {
          "indexed": false,
          "internalType": "address",
          "name": "owner",
          "type": "address"
        },
        {
          "indexed": false,
          "internalType": "string",
          "name": "name",
          "type": "string"
        },
        {
          "indexed": false,
          "internalType": "string",
          "name": "location",
          "type": "string"
        },
        {
          "indexed": false,
          "internalType": "uint256",
          "name": "pricePerDay",
          "type": "uint256"
        }
      ],
      "name": "PropertyListed",
      "type": "event"
    },
    {
      "anonymous": false,
      "inputs": [
        {
          "indexed": false,
          "internalType": "uint256",
          "name": "propertyId",
          "type": "uint256"
        },
        {
          "indexed": false,
          "internalType": "address",
          "name": "renter",
          "type": "address"
        },
        {
          "indexed": false,
          "internalType": "uint256",
          "name": "rentalDays",
          "type": "uint256"
        },
        {
          "indexed": false,
          "internalType": "uint256",
          "name": "totalAmount",
          "type": "uint256"
        }
      ],
      "name": "PropertyRented",
      "type": "event"
    },
    {
      "anonymous": false,
      "inputs": [
        {
          "indexed": false,
          "internalType": "uint256",
          "name": "propertyId",
          "type": "uint256"
        },
        {
          "indexed": false,
          "internalType": "address",
          "name": "renter",
          "type": "address"
        }
      ],
      "name": "RentalCancelled",
      "type": "event"
    },
    {
      "anonymous": false,
      "inputs": [
        {
          "indexed": false,
          "internalType": "uint256",
          "name": "propertyId",
          "type": "uint256"
        }
      ],
      "name": "RentalEnded",
      "type": "event"
    },
    {
      "inputs": [
        {
          "internalType": "uint256",
          "name": "",
          "type": "uint256"
        }
      ],
      "name": "properties",
      "outputs": [
        {
          "internalType": "address payable",
          "name": "owner",
          "type": "address"
        },
        {
          "internalType": "string",
          "name": "name",
          "type": "string"
        },
        {
          "internalType": "string",
          "name": "description",
          "type": "string"
        },
        {
          "internalType": "string",
          "name": "location",
          "type": "string"
        },
        {
          "internalType": "uint256",
          "name": "pricePerDay",
          "type": "uint256"
        },
        {
          "internalType": "bool",
          "name": "isRented",
          "type": "bool"
        },
        {
          "internalType": "address",
          "name": "currentRenter",
          "type": "address"
        },
        {
          "internalType": "uint256",
          "name": "rentalEndTime",
          "type": "uint256"
        }
      ],
      "stateMutability": "view",
      "type": "function",
      "constant": true
    },
    {
      "inputs": [
        {
          "internalType": "uint256",
          "name": "",
          "type": "uint256"
        },
        {
          "internalType": "uint256",
          "name": "",
          "type": "uint256"
        }
      ],
      "name": "rentals",
      "outputs": [
        {
          "internalType": "address",
          "name": "renter",
          "type": "address"
        },
        {
          "internalType": "uint256",
          "name": "rentalDays",
          "type": "uint256"
        },
        {
          "internalType": "uint256",
          "name": "totalAmount",
          "type": "uint256"
        },
        {
          "internalType": "uint256",
          "name": "startTime",
          "type": "uint256"
        },
        {
          "internalType": "bool",
          "name": "active",
          "type": "bool"
        }
      ],
      "stateMutability": "view",
      "type": "function",
      "constant": true
    },
    {
      "inputs": [],
      "name": "getPropertiesCount",
      "outputs": [
        {
          "internalType": "uint256",
          "name": "",
          "type": "uint256"
        }
      ],
      "stateMutability": "view",
      "type": "function",
      "constant": true
    },
    {
      "inputs": [
        {
          "internalType": "string",
          "name": "_name",
          "type": "string"
        },
        {
          "internalType": "string",
          "name": "_description",
          "type": "string"
        },
        {
          "internalType": "string",
          "name": "_location",
          "type": "string"
        },
        {
          "internalType": "uint256",
          "name": "_pricePerDay",
          "type": "uint256"
        }
      ],
      "name": "listProperty",
      "outputs": [],
      "stateMutability": "nonpayable",
      "type": "function"
    },
    {
      "inputs": [
        {
          "internalType": "uint256",
          "name": "_propertyId",
          "type": "uint256"
        },
        {
          "internalType": "uint256",
          "name": "_rentalDays",
          "type": "uint256"
        }
      ],
      "name": "rentProperty",
      "outputs": [],
      "stateMutability": "payable",
      "type": "function",
      "payable": true
    },
    {
      "inputs": [
        {
          "internalType": "uint256",
          "name": "_propertyId",
          "type": "uint256"
        }
      ],
      "name": "cancelRental",
      "outputs": [],
      "stateMutability": "nonpayable",
      "type": "function"
    },
    {
      "inputs": [
        {
          "internalType": "uint256",
          "name": "_propertyId",
          "type": "uint256"
        }
      ],
      "name": "endRental",
      "outputs": [],
      "stateMutability": "nonpayable",
      "type": "function"
    },
    {
      "inputs": [
        {
          "internalType": "uint256",
          "name": "_propertyId",
          "type": "uint256"
        }
      ],
      "name": "getRentalHistory",
      "outputs": [
        {
          "components": [
            {
              "internalType": "address",
              "name": "renter",
              "type": "address"
            },
            {
              "internalType": "uint256",
              "name": "rentalDays",
              "type": "uint256"
            },
            {
              "internalType": "uint256",
              "name": "totalAmount",
              "type": "uint256"
            },
            {
              "internalType": "uint256",
              "name": "startTime",
              "type": "uint256"
            },
            {
              "internalType": "bool",
              "name": "active",
              "type": "bool"
            }
          ],
          "internalType": "struct PropertyRental.Rental[]",
          "name": "",
          "type": "tuple[]"
        }
      ],
      "stateMutability": "view",
      "type": "function",
      "constant": true
    }
  ],
  "bytecode": "0x608060405234801561001057600080fd5b50611e4c806100206000396000f3fe60806040526004361061007b5760003560e01c80635e0dacb41161004e5780635e0dacb41461013157806397491d6f1461015a578063d1ae457014610183578063f7b10808146101c05761007b565b8063174000bc1461008057806330e9b014146100ab5780633ec4ebb7146100d45780634435c101146100f0575b600080fd5b34801561008c57600080fd5b50610095610204565b6040516100a29190611a0f565b60405180910390f35b3480156100b757600080fd5b506100d260048036038101906100cd91906112cb565b610210565b005b6100ee60048036038101906100e9919061139f565b610466565b005b3480156100fc57600080fd5b506101176004803603810190610112919061139f565b61085c565b60405161012895949392919061187a565b60405180910390f35b34801561013d57600080fd5b5061015860048036038101906101539190611376565b6108dc565b005b34801561016657600080fd5b50610181600480360381019061017c9190611376565b610bc1565b005b34801561018f57600080fd5b506101aa60048036038101906101a59190611376565b610e6d565b6040516101b791906118cd565b60405180910390f35b3480156101cc57600080fd5b506101e760048036038101906101e29190611376565b610f6e565b6040516101fb9897969594939291906117e7565b60405180910390f35b60008080549050905090565b60008111610253576040517f08c379a000000000000000000000000000000000000000000000000000000000815260040161024a906119cf565b60405180910390fd5b60006040518061010001604052803373ffffffffffffffffffffffffffffffffffffffff168152602001868152602001858152602001848152602001838152602001600015158152602001600073ffffffffffffffffffffffffffffffffffffffff16815260200160008152509050600081908060018154018082558091505060019003906000526020600020906007020160009091909190915060008201518160000160006101000a81548173ffffffffffffffffffffffffffffffffffffffff021916908373ffffffffffffffffffffffffffffffffffffffff16021790555060208201518160010190805190602001906103519291906111ab565b50604082015181600201908051906020019061036e9291906111ab565b50606082015181600301908051906020019061038b9291906111ab565b506080820151816004015560a08201518160050160006101000a81548160ff02191690831515021790555060c08201518160050160016101000a81548173ffffffffffffffffffffffffffffffffffffffff021916908373ffffffffffffffffffffffffffffffffffffffff16021790555060e0820151816006015550506000600160008054905061041d9190611c5f565b90507f2618c82e56666399a2fc6fcecf84a8bbf8629b732da1ab325415611345fa82f48133888787604051610456959493929190611a53565b60405180910390a1505050505050565b60008083815481106104a1577f4e487b7100000000000000000000000000000000000000000000000000000000600052603260045260246000fd5b906000526020600020906007020190508060000160009054906101000a900473ffffffffffffffffffffffffffffffffffffffff1673ffffffffffffffffffffffffffffffffffffffff163373ffffffffffffffffffffffffffffffffffffffff161415610544576040517f08c379a000000000000000000000000000000000000000000000000000000000815260040161053b906118ef565b60405180910390fd5b8060050160009054906101000a900460ff1615610596576040517f08c379a000000000000000000000000000000000000000000000000000000000815260040161058d9061192f565b60405180910390fd5b600082116105d9576040517f08c379a00000000000000000000000000000000000000000000000000000000081526004016105d09061190f565b60405180910390fd5b8181600401546105e99190611c05565b341461062a576040517f08c379a0000000000000000000000000000000000000000000000000000000008152600401610621906119ef565b60405180910390fd5b60018160050160006101000a81548160ff021916908315150217905550338160050160016101000a81548173ffffffffffffffffffffffffffffffffffffffff021916908373ffffffffffffffffffffffffffffffffffffffff16021790555062015180826106999190611c05565b426106a49190611baf565b8160060181905550600160008481526020019081526020016000206040518060a001604052803373ffffffffffffffffffffffffffffffffffffffff16815260200184815260200134815260200142815260200160011515815250908060018154018082558091505060019003906000526020600020906005020160009091909190915060008201518160000160006101000a81548173ffffffffffffffffffffffffffffffffffffffff021916908373ffffffffffffffffffffffffffffffffffffffff16021790555060208201518160010155604082015181600201556060820151816003015560808201518160040160006101000a81548160ff02191690831515021790555050508060000160009054906101000a900473ffffffffffffffffffffffffffffffffffffffff1673ffffffffffffffffffffffffffffffffffffffff166108fc349081150290604051600060405180830381858888f19350505050158015610819573d6000803e3d6000fd5b507f83f582c38246e10118fca894a9512cb07f6c10aec67f1808c8ddd5db8810e5a98333843460405161084f9493929190611ab4565b60405180910390a1505050565b6001602052816000526040600020818154811061087857600080fd5b9060005260206000209060050201600091509150508060000160009054906101000a900473ffffffffffffffffffffffffffffffffffffffff16908060010154908060020154908060030154908060040160009054906101000a900460ff16905085565b6000808281548110610917577f4e487b7100000000000000000000000000000000000000000000000000000000600052603260045260246000fd5b906000526020600020906007020190506000600160008481526020019081526020016000209050600081600183805490506109529190611c5f565b81548110610989577f4e487b7100000000000000000000000000000000000000000000000000000000600052603260045260246000fd5b906000526020600020906005020190508260050160019054906101000a900473ffffffffffffffffffffffffffffffffffffffff1673ffffffffffffffffffffffffffffffffffffffff163373ffffffffffffffffffffffffffffffffffffffff161480610a4657508260000160009054906101000a900473ffffffffffffffffffffffffffffffffffffffff1673ffffffffffffffffffffffffffffffffffffffff163373ffffffffffffffffffffffffffffffffffffffff16145b610a85576040517f08c379a0000000000000000000000000000000000000000000000000000000008152600401610a7c9061194f565b60405180910390fd5b8060040160009054906101000a900460ff16610ad6576040517f08c379a0000000000000000000000000000000000000000000000000000000008152600401610acd9061198f565b60405180910390fd5b60008360050160006101000a81548160ff02191690831515021790555060008360050160016101000a81548173ffffffffffffffffffffffffffffffffffffffff021916908373ffffffffffffffffffffffffffffffffffffffff1602179055506000836006018190555060008160040160006101000a81548160ff0219169083151502179055507f13baeac73b5c5a6f84bc5edecc0ba0576e1e5f59a6e28512e5c0309855ab3a8b848260000160009054906101000a900473ffffffffffffffffffffffffffffffffffffffff16604051610bb3929190611a2a565b60405180910390a150505050565b6000808281548110610bfc577f4e487b7100000000000000000000000000000000000000000000000000000000600052603260045260246000fd5b90600052602060002090600702019050600060016000848152602001908152602001600020905060008160018380549050610c379190611c5f565b81548110610c6e577f4e487b7100000000000000000000000000000000000000000000000000000000600052603260045260246000fd5b906000526020600020906005020190508260000160009054906101000a900473ffffffffffffffffffffffffffffffffffffffff1673ffffffffffffffffffffffffffffffffffffffff163373ffffffffffffffffffffffffffffffffffffffff1614610d10576040517f08c379a0000000000000000000000000000000000000000000000000000000008152600401610d07906119af565b60405180910390fd5b8060040160009054906101000a900460ff16610d61576040517f08c379a0000000000000000000000000000000000000000000000000000000008152600401610d589061198f565b60405180910390fd5b8260060154421015610da8576040517f08c379a0000000000000000000000000000000000000000000000000000000008152600401610d9f9061196f565b60405180910390fd5b60008360050160006101000a81548160ff02191690831515021790555060008360050160016101000a81548173ffffffffffffffffffffffffffffffffffffffff021916908373ffffffffffffffffffffffffffffffffffffffff1602179055506000836006018190555060008160040160006101000a81548160ff0219169083151502179055507fdf0018bb98956332f02ca39511007ac6497224c99f12b6cb8518a69aa6be5e5b84604051610e5f9190611a0f565b60405180910390a150505050565b606060016000838152602001908152602001600020805480602002602001604051908101604052809291908181526020016000905b82821015610f6357838290600052602060002090600502016040518060a00160405290816000820160009054906101000a900473ffffffffffffffffffffffffffffffffffffffff1673ffffffffffffffffffffffffffffffffffffffff1673ffffffffffffffffffffffffffffffffffffffff1681526020016001820154815260200160028201548152602001600382015481526020016004820160009054906101000a900460ff16151515158152505081526020019060010190610ea2565b505050509050919050565b60008181548110610f7e57600080fd5b90600052602060002090600702016000915090508060000160009054906101000a900473ffffffffffffffffffffffffffffffffffffffff1690806001018054610fc790611d2f565b80601f0160208091040260200160405190810160405280929190818152602001828054610ff390611d2f565b80156110405780601f1061101557610100808354040283529160200191611040565b820191906000526020600020905b81548152906001019060200180831161102357829003601f168201915b50505050509080600201805461105590611d2f565b80601f016020809104026020016040519081016040528092919081815260200182805461108190611d2f565b80156110ce5780601f106110a3576101008083540402835291602001916110ce565b820191906000526020600020905b8154815290600101906020018083116110b157829003601f168201915b5050505050908060030180546110e390611d2f565b80601f016020809104026020016040519081016040528092919081815260200182805461110f90611d2f565b801561115c5780601f106111315761010080835404028352916020019161115c565b820191906000526020600020905b81548152906001019060200180831161113f57829003601f168201915b5050505050908060040154908060050160009054906101000a900460ff16908060050160019054906101000a900473ffffffffffffffffffffffffffffffffffffffff16908060060154905088565b8280546111b790611d2f565b90600052602060002090601f0160209004810192826111d95760008555611220565b82601f106111f257805160ff1916838001178555611220565b82800160010185558215611220579182015b8281111561121f578251825591602001919060010190611204565b5b50905061122d9190611231565b5090565b5b8082111561124a576000816000905550600101611232565b5090565b600061126161125c84611b2a565b611af9565b90508281526020810184848401111561127957600080fd5b611284848285611ced565b509392505050565b600082601f83011261129d57600080fd5b81356112ad84826020860161124e565b91505092915050565b6000813590506112c581611dff565b92915050565b600080600080608085870312156112e157600080fd5b600085013567ffffffffffffffff8111156112fb57600080fd5b6113078782880161128c565b945050602085013567ffffffffffffffff81111561132457600080fd5b6113308782880161128c565b935050604085013567ffffffffffffffff81111561134d57600080fd5b6113598782880161128c565b925050606061136a878288016112b6565b91505092959194509250565b60006020828403121561138857600080fd5b6000611396848285016112b6565b91505092915050565b600080604083850312156113b257600080fd5b60006113c0858286016112b6565b92505060206113d1858286016112b6565b9150509250929050565b60006113e78383611761565b60a08301905092915050565b6113fc81611ca5565b82525050565b61140b81611c93565b82525050565b61141a81611c93565b82525050565b600061142b82611b6a565b6114358185611b8d565b935061144083611b5a565b8060005b8381101561147157815161145888826113db565b975061146383611b80565b925050600181019050611444565b5085935050505092915050565b61148781611cb7565b82525050565b61149681611cb7565b82525050565b60006114a782611b75565b6114b18185611b9e565b93506114c1818560208601611cfc565b6114ca81611dee565b840191505092915050565b60006114e2602483611b9e565b91507f4f776e65722063616e6e6f742072656e74207468656972206f776e2070726f7060008301527f65727479000000000000000000000000000000000000000000000000000000006020830152604082019050919050565b6000611548602283611b9e565b91507f52656e74616c2064617973206d7573742062652067726561746572207468616e60008301527f20300000000000000000000000000000000000000000000000000000000000006020830152604082019050919050565b60006115ae601783611b9e565b91507f50726f706572747920616c72656164792072656e7465640000000000000000006000830152602082019050919050565b60006115ee601f83611b9e565b91507f4f6e6c792072656e746572206f72206f776e65722063616e2063616e63656c006000830152602082019050919050565b600061162e601a83611b9e565b91507f52656e74616c20706572696f64206e6f742066696e69736865640000000000006000830152602082019050919050565b600061166e601183611b9e565b91507f52656e74616c206e6f74206163746976650000000000000000000000000000006000830152602082019050919050565b60006116ae601983611b9e565b91507f4f6e6c79206f776e65722063616e20656e642072656e74616c000000000000006000830152602082019050919050565b60006116ee601c83611b9e565b91507f5072696365206d7573742062652067726561746572207468616e2030000000006000830152602082019050919050565b600061172e601783611b9e565b91507f496e636f72726563742072656e74616c20616d6f756e740000000000000000006000830152602082019050919050565b60a0820160008201516117776000850182611402565b50602082015161178a60208501826117c9565b50604082015161179d60408501826117c9565b5060608201516117b060608501826117c9565b5060808201516117c3608085018261147e565b50505050565b6117d281611ce3565b82525050565b6117e181611ce3565b82525050565b6000610100820190506117fd600083018b6113f3565b818103602083015261180f818a61149c565b90508181036040830152611823818961149c565b90508181036060830152611837818861149c565b905061184660808301876117d8565b61185360a083018661148d565b61186060c0830185611411565b61186d60e08301846117d8565b9998505050505050505050565b600060a08201905061188f6000830188611411565b61189c60208301876117d8565b6118a960408301866117d8565b6118b660608301856117d8565b6118c3608083018461148d565b9695505050505050565b600060208201905081810360008301526118e78184611420565b905092915050565b60006020820190508181036000830152611908816114d5565b9050919050565b600060208201905081810360008301526119288161153b565b9050919050565b60006020820190508181036000830152611948816115a1565b9050919050565b60006020820190508181036000830152611968816115e1565b9050919050565b6000602082019050818103600083015261198881611621565b9050919050565b600060208201905081810360008301526119a881611661565b9050919050565b600060208201905081810360008301526119c8816116a1565b9050919050565b600060208201905081810360008301526119e8816116e1565b9050919050565b60006020820190508181036000830152611a0881611721565b9050919050565b6000602082019050611a2460008301846117d8565b92915050565b6000604082019050611a3f60008301856117d8565b611a4c6020830184611411565b9392505050565b600060a082019050611a6860008301886117d8565b611a756020830187611411565b8181036040830152611a87818661149c565b90508181036060830152611a9b818561149c565b9050611aaa60808301846117d8565b9695505050505050565b6000608082019050611ac960008301876117d8565b611ad66020830186611411565b611ae360408301856117d8565b611af060608301846117d8565b95945050505050565b6000604051905081810181811067ffffffffffffffff82111715611b2057611b1f611dbf565b5b8060405250919050565b600067ffffffffffffffff821115611b4557611b44611dbf565b5b601f19601f8301169050602081019050919050565b6000819050602082019050919050565b600081519050919050565b600081519050919050565b6000602082019050919050565b600082825260208201905092915050565b600082825260208201905092915050565b6000611bba82611ce3565b9150611bc583611ce3565b9250827fffffffffffffffffffffffffffffffffffffffffffffffffffffffffffffffff03821115611bfa57611bf9611d61565b5b828201905092915050565b6000611c1082611ce3565b9150611c1b83611ce3565b9250817fffffffffffffffffffffffffffffffffffffffffffffffffffffffffffffffff0483118215151615611c5457611c53611d61565b5b828202905092915050565b6000611c6a82611ce3565b9150611c7583611ce3565b925082821015611c8857611c87611d61565b5b828203905092915050565b6000611c9e82611cc3565b9050919050565b6000611cb082611cc3565b9050919050565b60008115159050919050565b600073ffffffffffffffffffffffffffffffffffffffff82169050919050565b6000819050919050565b82818337600083830152505050565b60005b83811015611d1a578082015181840152602081019050611cff565b83811115611d29576000848401525b50505050565b60006002820490506001821680611d4757607f821691505b60208210811415611d5b57611d5a611d90565b5b50919050565b7f4e487b7100000000000000000000000000000000000000000000000000000000600052601160045260246000fd5b7f4e487b7100000000000000000000000000000000000000000000000000000000600052602260045260246000fd5b7f4e487b7100000000000000000000000000000000000000000000000000000000600052604160045260246000fd5b6000601f19601f8301169050919050565b611e0881611ce3565b8114611e1357600080fd5b5056fea2646970667358221220c4c20aab07054e8300b65a879906d806ee21560199d98d15a9ef89f1c949a1f964736f6c63430008000033",
  "immutableReferences": {},
  "source": "// SPDX-License-Identifier: MIT\r\npragma solidity ^0.8.0;\r\n\r\ncontract PropertyRental {\r\n    struct Property {\r\n        address payable owner;\r\n        string name;\r\n        string description;\r\n        string location;\r\n        uint pricePerDay;\r\n        bool isRented;\r\n        address currentRenter;\r\n        uint rentalEndTime;\r\n    }\r\n    \r\n    struct Rental {\r\n        address renter;\r\n        uint rentalDays;\r\n        uint totalAmount;\r\n        uint startTime;\r\n        bool active;\r\n    }\r\n    \r\n    Property[] public properties;\r\n    mapping(uint => Rental[]) public rentals;\r\n    \r\n    event PropertyListed(uint propertyId, address owner, string name, string location, uint pricePerDay);\r\n    event PropertyRented(uint propertyId, address renter, uint rentalDays, uint totalAmount);\r\n    event RentalCancelled(uint propertyId, address renter);\r\n    event RentalEnded(uint propertyId);\r\n\r\n    function getPropertiesCount() public view returns (uint) {\r\n        return properties.length;\r\n    }\r\n    \r\n    function listProperty(string memory _name, string memory _description, string memory _location, uint _pricePerDay) public {\r\n        require(_pricePerDay > 0, \"Price must be greater than 0\");\r\n        Property memory newProperty = Property({\r\n            owner: payable(msg.sender),\r\n            name: _name,\r\n            description: _description,\r\n            location: _location,\r\n            pricePerDay: _pricePerDay,\r\n            isRented: false,\r\n            currentRenter: address(0),\r\n            rentalEndTime: 0\r\n        });\r\n        properties.push(newProperty);\r\n        uint propertyId = properties.length - 1;\r\n        emit PropertyListed(propertyId, msg.sender, _name, _location, _pricePerDay);\r\n    }\r\n    \r\n    function rentProperty(uint _propertyId, uint _rentalDays) public payable {\r\n        Property storage property = properties[_propertyId];\r\n        require(msg.sender != property.owner, \"Owner cannot rent their own property\");\r\n        require(!property.isRented, \"Property already rented\");\r\n        require(_rentalDays > 0, \"Rental days must be greater than 0\");\r\n        require(msg.value == property.pricePerDay * _rentalDays, \"Incorrect rental amount\");\r\n        \r\n        property.isRented = true;\r\n        property.currentRenter = msg.sender;\r\n        property.rentalEndTime = block.timestamp + (_rentalDays * 1 days);\r\n        \r\n        rentals[_propertyId].push(Rental({\r\n            renter: msg.sender,\r\n            rentalDays: _rentalDays,\r\n            totalAmount: msg.value,\r\n            startTime: block.timestamp,\r\n            active: true\r\n        }));\r\n        \r\n        property.owner.transfer(msg.value);\r\n        emit PropertyRented(_propertyId, msg.sender, _rentalDays, msg.value);\r\n    }\r\n    \r\n    function cancelRental(uint _propertyId) public {\r\n        Property storage property = properties[_propertyId];\r\n        Rental[] storage rentalArray = rentals[_propertyId];\r\n        Rental storage currentRental = rentalArray[rentalArray.length - 1];\r\n        \r\n        require(msg.sender == property.currentRenter || msg.sender == property.owner, \r\n                \"Only renter or owner can cancel\");\r\n        require(currentRental.active, \"Rental not active\");\r\n        \r\n        property.isRented = false;\r\n        property.currentRenter = address(0);\r\n        property.rentalEndTime = 0;\r\n        currentRental.active = false;\r\n        \r\n        emit RentalCancelled(_propertyId, currentRental.renter);\r\n    }\r\n    \r\n    function endRental(uint _propertyId) public {\r\n        Property storage property = properties[_propertyId];\r\n        Rental[] storage rentalArray = rentals[_propertyId];\r\n        Rental storage currentRental = rentalArray[rentalArray.length - 1];\r\n        \r\n        require(msg.sender == property.owner, \"Only owner can end rental\");\r\n        require(currentRental.active, \"Rental not active\");\r\n        require(block.timestamp >= property.rentalEndTime, \"Rental period not finished\");\r\n        \r\n        property.isRented = false;\r\n        property.currentRenter = address(0);\r\n        property.rentalEndTime = 0;\r\n        currentRental.active = false;\r\n        \r\n        emit RentalEnded(_propertyId);\r\n    }\r\n    \r\n    function getRentalHistory(uint _propertyId) public view returns (Rental[] memory) {\r\n        return rentals[_propertyId];\r\n    }\r\n}",
  "sourcePath": "C:\\xampp\\htdocs\\ea\\contracts\\PropertyRental.sol",
  "compiler": {
    "name": "solc",
    "version": "0.8.0+commit.c7dfd78e.Emscripten.clang"
  },
  "schemaVersion": "3.4.16",
  "updatedAt": "2024-11-16T02:21:14.823Z",
  "networkType": "ethereum",
  "devdoc": {
    "kind": "dev",
    "methods": {},
    "version": 1
  },
  "userdoc": {
    "kind": "user",
    "methods": {},
    "version": 1
  }
}